{
  "contractName": "Ballot",
  "abi": [
    {
      "inputs": [],
      "payable": false,
      "stateMutability": "nonpayable",
      "type": "constructor"
    },
    {
      "constant": true,
      "inputs": [],
      "name": "candidateCount",
      "outputs": [
        {
          "internalType": "uint256",
          "name": "",
          "type": "uint256"
        }
      ],
      "payable": false,
      "stateMutability": "view",
      "type": "function"
    },
    {
      "constant": true,
      "inputs": [
        {
          "internalType": "uint256",
          "name": "",
          "type": "uint256"
        }
      ],
      "name": "candidates",
      "outputs": [
        {
          "internalType": "uint256",
          "name": "id",
          "type": "uint256"
        },
        {
          "internalType": "string",
          "name": "name",
          "type": "string"
        },
        {
          "internalType": "bool",
          "name": "vote",
          "type": "bool"
        }
      ],
      "payable": false,
      "stateMutability": "view",
      "type": "function"
    },
    {
      "constant": false,
      "inputs": [
        {
          "internalType": "string",
          "name": "_content",
          "type": "string"
        }
      ],
      "name": "createCandidate",
      "outputs": [],
      "payable": false,
      "stateMutability": "nonpayable",
      "type": "function"
    }
  ],
  "bytecode": "0x60806040526000805534801561001457600080fd5b50604080518082019091526005815264416c69636560d81b6020820152610043906001600160e01b0361004816565b61014f565b6000805460019081018083556040805160608101825282815260208082018781528284018790529386528481529190942084518155915180519293610095939085019291909101906100b4565b50604091909101516002909101805460ff191691151591909117905550565b828054600181600116156101000203166002900490600052602060002090601f016020900481019282601f106100f557805160ff1916838001178555610122565b82800160010185558215610122579182015b82811115610122578251825591602001919060010190610107565b5061012e929150610132565b5090565b61014c91905b8082111561012e5760008155600101610138565b90565b6103a08061015e6000396000f3fe608060405234801561001057600080fd5b50600436106100415760003560e01c80633477ee2e146100465780635fba7a56146100ed578063a9a981a314610195575b600080fd5b6100636004803603602081101561005c57600080fd5b50356101af565b604051808481526020018060200183151515158152602001828103825284818151815260200191508051906020019080838360005b838110156100b0578181015183820152602001610098565b50505050905090810190601f1680156100dd5780820380516001836020036101000a031916815260200191505b5094505050505060405180910390f35b6101936004803603602081101561010357600080fd5b81019060208101813564010000000081111561011e57600080fd5b82018360208201111561013057600080fd5b8035906020019184600183028401116401000000008311171561015257600080fd5b91908080601f01602080910402602001604051908101604052809392919081815260200183838082843760009201919091525092955061025e945050505050565b005b61019d6102ca565b60408051918252519081900360200190f35b600160208181526000928352604092839020805481840180548651600296821615610100026000190190911695909504601f8101859004850286018501909652858552909491939290919083018282801561024b5780601f106102205761010080835404028352916020019161024b565b820191906000526020600020905b81548152906001019060200180831161022e57829003601f168201915b5050506002909301549192505060ff1683565b60008054600190810180835560408051606081018252828152602080820187815282840187905293865284815291909420845181559151805192936102ab939085019291909101906102d0565b50604091909101516002909101805460ff191691151591909117905550565b60005481565b828054600181600116156101000203166002900490600052602060002090601f016020900481019282601f1061031157805160ff191683800117855561033e565b8280016001018555821561033e579182015b8281111561033e578251825591602001919060010190610323565b5061034a92915061034e565b5090565b61036891905b8082111561034a5760008155600101610354565b9056fea265627a7a723158204d87d3017170566390d816f8dedb2d1945cc1dca5a9d532223d391920a61a85164736f6c63430005100032",
  "source": "// SPDX-License-Identifier: MIT\npragma solidity >=0.4.22 <0.9.0;\n\n\ncontract Ballot{\n\tuint public candidateCount = 0;  \n\n  struct Candidate{\n    uint id;\n    string name;\n    bool vote;\n  }\n\n  mapping(uint => Candidate) public candidates;\n  \n  constructor() public{\n    createCandidate(\"Alice\");\n  }\n  \n  function createCandidate(string memory _content) public{\n  candidateCount ++;\n  candidates[candidateCount] = Candidate(candidateCount,_content, false);\n  }\n\n}\n",
  "sourcePath": "/Users/markorenic/Projects/DiVA/blockchain/contracts/ballot.sol",
  "compiler": {
    "name": "solc",
    "version": "0.5.16+commit.9c3226ce.Emscripten.clang"
  },
  "schemaVersion": "3.4.3",
  "updatedAt": "2021-09-18T20:05:10.215Z",
  "networkType": "ethereum",
  "devdoc": {
    "methods": {}
  },
  "userdoc": {
    "methods": {}
  }
}